S0110000756172745F746573742E7372656338
S31580000000060000EAFEFFFFEAFEFFFFEAFEFFFFEAC8
S31580000010FEFFFFEAFEFFFFEAFEFFFFEAFEFFFFEAC2
S315800000200AD2A0E324009FE524109FE5010050E159
S315800000300400000A0040A0E30040C0E5010080E221
S31580000040010050E1FBFFFF1AB40000EAFEFFFFEA61
S315800000503C0300803C03008080B582B000AF40F254
S315800000602833C8F200037B60786800F01FF900F03F
S31580000070FBF8FEE780B400AF4FF41763C4F2E143A8
S3158000008030221A6040F67413C4F2E14300221A60EB
S315800000904FF48063C4F2E0434FF48062C4F2E042DE
S315800000A0126822F0030242F002021A604FF48E7345
S315800000B0C4F2E0434FF48E72C4F2E042126822F03A
S315800000C0030242F002021A6040F2B443C4F2E043F3
S315800000D040F2B442C4F2E042126822F0030242F0D7
S315800000E002021A604CF29413C4F604034FF46002C1
S315800000F01A604CF29013C4F604034FF080721A60B3
S3158000010049F25403C4F2E04349F25402C4F2E04295
S31580000110126842F002021A6000BF49F25803C4F224
S31580000120E0431B6849F25403C4F2E04349F25402A7
S31580000130C4F2E042126842F008021A6000BF49F237
S315800001401403C4F2E0431B6803F04003002BF6D08F
S3158000015049F20403C4F2E04300221A6049F2200304
S31580000160C4F2E04307221A6049F20C03C4F2E0436A
S315800001706FF07C021A604FF41043C4F2E043002211
S315800001801A6049F20403C4F2E04300221A6049F27D
S315800001900C03C4F2E04303221A6049F21003C4F24E
S315800001A0E04303221A6049F20803C4F2E0430722BF
S315800001B01A6049F20C03C4F2E0436FF07C021A60C5
S315800001C04FF41043C4F2E0431A221A6049F2040342
S315800001D0C4F2E04300221A6049F20C03C4F2E04301
S315800001E003221A6049F22003C4F2E04300221A6017
S315800001F000BFBD465DF8047B704700BF80B483B006
S3158000020000AF0346FB7100BF49F21403C4F2E0431A
S315800002101B6803F00103002BF6D14FF41043C4F2A0
S31580000220E043FA791A6000BF0C37BD465DF8047B5F
S31580000230704700BF80B584B000AF78603960002316
S31580000240FB6009E0FB687A6813441B781846FFF761
S31580000250D5FFFB680133FB60FA683B689A42F1DBA5
S3158000026000BF1037BD4680BD80B500AF0D20FFF7BB
S31580000270C5FF0A20FFF7C2FF00BF80BD80B400AF74
S3158000028000BF49F21403C4F2E0431B6803F0010384
S31580000290002BF6D04FF41043C4F2E0431B78DBB258
S315800002A01846BD465DF8047B704700BF80B582B0B6
S315800002B000AF7860786800F01BF8034619467868C6
S315800002C0FFF7B8FFFFF7D0FF00BF0837BD4680BDF8
S315800002D080B582B000AF7860786800F009F8034690
S315800002E019467868FFF7A6FF00BF0837BD4680BD70
S315800002F080B485B000AF78607B68FB6002E0FB6805
S315800003000133FB60FB681B78002BF8D1FA687B68A9
S31580000310D31A18461437BD465DF8047B704700BF74
S30D8000032004F01FE5590000807E
S31580000328436563692065737420756E20746573747C
S30980000338000000003B
S705800000205A
